{
    "contractName": "IdleYieldSource",
    "abi": [
        {
            "inputs": [
                {
                    "internalType": "address",
                    "name": "_idleToken",
                    "type": "address"
                },
                {
                    "internalType": "address",
                    "name": "_iIdleTokenHelper",
                    "type": "address"
                }
            ],
            "stateMutability": "nonpayable",
            "type": "constructor"
        },
        {
            "anonymous": false,
            "inputs": [
                {
                    "indexed": true,
                    "internalType": "address",
                    "name": "previousAssetManager",
                    "type": "address"
                },
                {
                    "indexed": true,
                    "internalType": "address",
                    "name": "newAssetManager",
                    "type": "address"
                }
            ],
            "name": "AssetManagerTransferred",
            "type": "event"
        },
        {
            "anonymous": false,
            "inputs": [
                {
                    "indexed": true,
                    "internalType": "address",
                    "name": "idleToken",
                    "type": "address"
                }
            ],
            "name": "IdleYieldSourceInitialized",
            "type": "event"
        },
        {
            "anonymous": false,
            "inputs": [
                {
                    "indexed": true,
                    "internalType": "address",
                    "name": "previousOwner",
                    "type": "address"
                },
                {
                    "indexed": true,
                    "internalType": "address",
                    "name": "newOwner",
                    "type": "address"
                }
            ],
            "name": "OwnershipTransferred",
            "type": "event"
        },
        {
            "anonymous": false,
            "inputs": [
                {
                    "indexed": true,
                    "internalType": "address",
                    "name": "from",
                    "type": "address"
                },
                {
                    "indexed": false,
                    "internalType": "uint256",
                    "name": "shares",
                    "type": "uint256"
                },
                {
                    "indexed": false,
                    "internalType": "uint256",
                    "name": "amount",
                    "type": "uint256"
                }
            ],
            "name": "RedeemedToken",
            "type": "event"
        },
        {
            "anonymous": false,
            "inputs": [
                {
                    "indexed": true,
                    "internalType": "address",
                    "name": "from",
                    "type": "address"
                },
                {
                    "indexed": false,
                    "internalType": "uint256",
                    "name": "amount",
                    "type": "uint256"
                }
            ],
            "name": "Sponsored",
            "type": "event"
        },
        {
            "anonymous": false,
            "inputs": [
                {
                    "indexed": true,
                    "internalType": "address",
                    "name": "from",
                    "type": "address"
                },
                {
                    "indexed": false,
                    "internalType": "uint256",
                    "name": "shares",
                    "type": "uint256"
                },
                {
                    "indexed": false,
                    "internalType": "uint256",
                    "name": "amount",
                    "type": "uint256"
                },
                {
                    "indexed": true,
                    "internalType": "address",
                    "name": "to",
                    "type": "address"
                }
            ],
            "name": "SuppliedTokenTo",
            "type": "event"
        },
        {
            "anonymous": false,
            "inputs": [
                {
                    "indexed": true,
                    "internalType": "address",
                    "name": "from",
                    "type": "address"
                },
                {
                    "indexed": true,
                    "internalType": "address",
                    "name": "to",
                    "type": "address"
                },
                {
                    "indexed": false,
                    "internalType": "uint256",
                    "name": "amount",
                    "type": "uint256"
                },
                {
                    "indexed": true,
                    "internalType": "contract IERC20Upgradeable",
                    "name": "token",
                    "type": "address"
                }
            ],
            "name": "TransferredERC20",
            "type": "event"
        },
        {
            "inputs": [],
            "name": "_totalShare",
            "outputs": [
                {
                    "internalType": "uint256",
                    "name": "",
                    "type": "uint256"
                }
            ],
            "stateMutability": "view",
            "type": "function"
        },
        {
            "inputs": [],
            "name": "assetManager",
            "outputs": [
                {
                    "internalType": "address",
                    "name": "",
                    "type": "address"
                }
            ],
            "stateMutability": "view",
            "type": "function"
        },
        {
            "inputs": [
                {
                    "internalType": "address",
                    "name": "addr",
                    "type": "address"
                }
            ],
            "name": "balanceOfToken",
            "outputs": [
                {
                    "internalType": "uint256",
                    "name": "",
                    "type": "uint256"
                }
            ],
            "stateMutability": "view",
            "type": "function"
        },
        {
            "inputs": [
                {
                    "internalType": "address",
                    "name": "",
                    "type": "address"
                }
            ],
            "name": "balances",
            "outputs": [
                {
                    "internalType": "uint256",
                    "name": "",
                    "type": "uint256"
                }
            ],
            "stateMutability": "view",
            "type": "function"
        },
        {
            "inputs": [],
            "name": "depositToken",
            "outputs": [
                {
                    "internalType": "address",
                    "name": "",
                    "type": "address"
                }
            ],
            "stateMutability": "view",
            "type": "function"
        },
        {
            "inputs": [],
            "name": "getRedeemPrice",
            "outputs": [
                {
                    "internalType": "uint256",
                    "name": "",
                    "type": "uint256"
                }
            ],
            "stateMutability": "view",
            "type": "function"
        },
        {
            "inputs": [],
            "name": "iIdleTokenHelper",
            "outputs": [
                {
                    "internalType": "address",
                    "name": "",
                    "type": "address"
                }
            ],
            "stateMutability": "view",
            "type": "function"
        },
        {
            "inputs": [],
            "name": "idleToken",
            "outputs": [
                {
                    "internalType": "address",
                    "name": "",
                    "type": "address"
                }
            ],
            "stateMutability": "view",
            "type": "function"
        },
        {
            "inputs": [
                {
                    "internalType": "address",
                    "name": "_idleToken",
                    "type": "address"
                },
                {
                    "internalType": "address",
                    "name": "_iIdleTokenHelper",
                    "type": "address"
                }
            ],
            "name": "initialize",
            "outputs": [],
            "stateMutability": "nonpayable",
            "type": "function"
        },
        {
            "inputs": [],
            "name": "owner",
            "outputs": [
                {
                    "internalType": "address",
                    "name": "",
                    "type": "address"
                }
            ],
            "stateMutability": "view",
            "type": "function"
        },
        {
            "inputs": [
                {
                    "internalType": "uint256",
                    "name": "redeemAmount",
                    "type": "uint256"
                }
            ],
            "name": "redeemToken",
            "outputs": [
                {
                    "internalType": "uint256",
                    "name": "",
                    "type": "uint256"
                }
            ],
            "stateMutability": "nonpayable",
            "type": "function"
        },
        {
            "inputs": [],
            "name": "renounceOwnership",
            "outputs": [],
            "stateMutability": "nonpayable",
            "type": "function"
        },
        {
            "inputs": [
                {
                    "internalType": "address",
                    "name": "newAssetManager",
                    "type": "address"
                }
            ],
            "name": "setAssetManager",
            "outputs": [
                {
                    "internalType": "bool",
                    "name": "",
                    "type": "bool"
                }
            ],
            "stateMutability": "nonpayable",
            "type": "function"
        },
        {
            "inputs": [
                {
                    "internalType": "uint256",
                    "name": "amount",
                    "type": "uint256"
                }
            ],
            "name": "sponsor",
            "outputs": [],
            "stateMutability": "nonpayable",
            "type": "function"
        },
        {
            "inputs": [
                {
                    "internalType": "uint256",
                    "name": "mintAmount",
                    "type": "uint256"
                },
                {
                    "internalType": "address",
                    "name": "to",
                    "type": "address"
                }
            ],
            "name": "supplyTokenTo",
            "outputs": [],
            "stateMutability": "nonpayable",
            "type": "function"
        },
        {
            "inputs": [],
            "name": "totalUnderlyingAssets",
            "outputs": [
                {
                    "internalType": "uint256",
                    "name": "",
                    "type": "uint256"
                }
            ],
            "stateMutability": "view",
            "type": "function"
        },
        {
            "inputs": [
                {
                    "internalType": "contract IERC20Upgradeable",
                    "name": "erc20Token",
                    "type": "address"
                },
                {
                    "internalType": "address",
                    "name": "to",
                    "type": "address"
                },
                {
                    "internalType": "uint256",
                    "name": "amount",
                    "type": "uint256"
                }
            ],
            "name": "transferERC20",
            "outputs": [],
            "stateMutability": "nonpayable",
            "type": "function"
        },
        {
            "inputs": [
                {
                    "internalType": "address",
                    "name": "newOwner",
                    "type": "address"
                }
            ],
            "name": "transferOwnership",
            "outputs": [],
            "stateMutability": "nonpayable",
            "type": "function"
        },
        {
            "inputs": [],
            "name": "underlyingAsset",
            "outputs": [
                {
                    "internalType": "address",
                    "name": "",
                    "type": "address"
                }
            ],
            "stateMutability": "view",
            "type": "function"
        }
    ],
    "bytecode": "60806040523480156200001157600080fd5b50604051620017c0380380620017c083398101604081905262000034916200013d565b609980546001600160a01b0319166001600160a01b03841690811790915560408051637e062a3560e11b8152905163fc0c546a916004808201926020929091908290030181600087803b1580156200008b57600080fd5b505af1158015620000a0573d6000803e3d6000fd5b505050506040513d601f19601f82011682018060405250810190620000c6919062000119565b609a80546001600160a01b039283166001600160a01b031991821617909155609b80549390921692169190911790555062000174565b80516001600160a01b03811681146200011457600080fd5b919050565b6000602082840312156200012b578081fd5b6200013682620000fc565b9392505050565b6000806040838503121562000150578081fd5b6200015b83620000fc565b91506200016b60208401620000fc565b90509250929050565b61163c80620001846000396000f3fe608060405234801561001057600080fd5b50600436106101215760003560e01c80637158da7c116100ad5780639db5dbe4116100715780639db5dbe41461024b578063b6cce5e21461025e578063b99152d014610271578063c89039c514610284578063f2fde38b1461029557600080fd5b80637158da7c146101fb57806376cde5641461020e57806387a6eeef146102165780638da5cb5b1461022957806394217ad11461023a57600080fd5b80632dd60c5e116100f45780632dd60c5e1461019f57806343060237146101b2578063485cc955146101d55780634fb9bbba146101ea578063715018a6146101f357600080fd5b8063013054c21461012657806319967a371461014c57806327e235e3146101545780632b24321a14610174575b600080fd5b61013961013436600461134d565b6102a8565b6040519081526020015b60405180910390f35b610139610498565b61013961016236600461127d565b60986020526000908152604090205481565b609b54610187906001600160a01b031681565b6040516001600160a01b039091168152602001610143565b609954610187906001600160a01b031681565b6101c56101c036600461127d565b61051a565b6040519015158152602001610143565b6101e86101e33660046112b5565b610598565b005b610139609c5481565b6101e8610736565b609a54610187906001600160a01b031681565b6101396107aa565b6101e861022436600461137d565b6107e3565b6065546001600160a01b0316610187565b6097546001600160a01b0316610187565b6101e861025936600461130d565b6108e4565b6101e861026c36600461134d565b610a63565b61013961027f36600461127d565b610aa5565b609a546001600160a01b0316610187565b6101e86102a336600461127d565b610af2565b6000600260015414156103025760405162461bcd60e51b815260206004820152601f60248201527f5265656e7472616e637947756172643a207265656e7472616e742063616c6c0060448201526064015b60405180910390fd5b6002600155600061031283610bdd565b3360009081526098602052604090205490915081111561037f5760405162461bcd60e51b815260206004820152602260248201527f52656465656d546f6b656e3a20204e6f7420456e6f756768204465706f736974604482015261195960f21b60648201526084016102f9565b6099546040516345985a8b60e11b8152600481018390526000916001600160a01b031690638b30b51690602401602060405180830381600087803b1580156103c657600080fd5b505af11580156103da573d6000803e3d6000fd5b505050506040513d601f19601f820116820180604052508101906103fe9190611365565b3360009081526098602052604090205490915061041b9083610cc1565b33600090815260986020526040902055609c546104389085610cc1565b609c55609a54610452906001600160a01b03163383610ccd565b604080518381526020810186905233917f5c9b0a8fe13a826ca676f5ad4f98c747b5086beb79ab58589b8211b62fa32fb9910160405180910390a2600180559392505050565b6099546040516370a0823160e01b81523060048201526000916001600160a01b0316906370a08231906024015b60206040518083038186803b1580156104dd57600080fd5b505afa1580156104f1573d6000803e3d6000fd5b505050506040513d601f19601f820116820180604052508101906105159190611365565b905090565b6065546000906001600160a01b031633146105475760405162461bcd60e51b81526004016102f99061141e565b609780546001600160a01b0319166001600160a01b0384169081179091556040516000907fa4d7db5805a7ddee85566735eb5d575b0894cef3fe057b4fa1b52090d8c22068908290a3506001919050565b600054610100900460ff16806105b1575060005460ff16155b6106145760405162461bcd60e51b815260206004820152602e60248201527f496e697469616c697a61626c653a20636f6e747261637420697320616c72656160448201526d191e481a5b9a5d1a585b1a5e995960921b60648201526084016102f9565b600054610100900460ff16158015610636576000805461ffff19166101011790555b609980546001600160a01b0319166001600160a01b03851690811790915560408051637e062a3560e11b8152905163fc0c546a916004808201926020929091908290030181600087803b15801561068c57600080fd5b505af11580156106a0573d6000803e3d6000fd5b505050506040513d601f19601f820116820180604052508101906106c49190611299565b609a80546001600160a01b03199081166001600160a01b0393841617909155609b80549091168483161790556099546040519116907f795e3042efad8c5d441d3c1a8cb34f31d2c27dba7a6d188d0242de49b828dcd790600090a28015610731576000805461ff00191690555b505050565b6065546001600160a01b031633146107605760405162461bcd60e51b81526004016102f99061141e565b6065546040516000916001600160a01b0316907f8be0079c531659141344cd1fd0a4f28419497f9722a3daafe3b4186f6b6457e0908390a3606580546001600160a01b0319169055565b609b54609954604051631b46cf8360e11b81526001600160a01b039182166004820152600092919091169063368d9f06906024016104c5565b600260015414156108365760405162461bcd60e51b815260206004820152601f60248201527f5265656e7472616e637947756172643a207265656e7472616e742063616c6c0060448201526064016102f9565b6002600155600061084683610d30565b6001600160a01b03831660009081526098602052604090205490915061086c9082610df5565b6001600160a01b038316600090815260986020526040902055609c546108929084610df5565b609c5560408051828152602081018590526001600160a01b0384169133917fdef5cc95ad9b1c65c586d0fce815ec764b575719636edf58ff2553ae6f110452910160405180910390a350506001805550565b6097546001600160a01b031633148061090757506065546001600160a01b031633145b6109795760405162461bcd60e51b815260206004820152603d60248201527f6f6e6c794f776e65724f7241737365744d616e616765723a2063616c6c65722060448201527f6973206e6f74206f776e6572206f72206173736574206d616e6167657200000060648201526084016102f9565b6099546001600160a01b03848116911614156109f35760405162461bcd60e51b815260206004820152603360248201527f49646c65546f6b656e5969656c64536f757263652f69646c65546f6b656e2d746044820152721c985b9cd9995c8b5b9bdd0b585b1b1bddd959606a1b60648201526084016102f9565b610a076001600160a01b0384168383610ccd565b826001600160a01b0316826001600160a01b0316336001600160a01b03167f29fcb7bb954d37295343e742bab21760748bdba4e026e4469a8100183996913884604051610a5691815260200190565b60405180910390a4505050565b610a6c81610d30565b5060405181815233907fbb2c10eb8b0d65523a501a1c079906e38af3c4231e31b799d408daacd7ce72269060200160405180910390a250565b6001600160a01b038116600090815260986020526040812054610aca57506000919050565b6001600160a01b038216600090815260986020526040902054610aec90610e01565b92915050565b6065546001600160a01b03163314610b1c5760405162461bcd60e51b81526004016102f99061141e565b6001600160a01b038116610b815760405162461bcd60e51b815260206004820152602660248201527f4f776e61626c653a206e6577206f776e657220697320746865207a65726f206160448201526564647265737360d01b60648201526084016102f9565b6065546040516001600160a01b038084169216907f8be0079c531659141344cd1fd0a4f28419497f9722a3daafe3b4186f6b6457e090600090a3606580546001600160a01b0319166001600160a01b0392909216919091179055565b600080610be86107aa565b90506000610c90609960009054906101000a90046001600160a01b03166001600160a01b031663313ce5676040518163ffffffff1660e01b815260040160206040518083038186803b158015610c3d57600080fd5b505afa158015610c51573d6000803e3d6000fd5b505050506040513d601f19601f82011682018060405250810190610c759190611365565b610c8090600a6114ce565b610c8a8685610ebc565b90610ec8565b9050610cba6040518060400160405280600681526020016573686172657360d01b81525082610ed4565b9392505050565b6000610cba8284611595565b6040516001600160a01b03831660248201526044810182905261073190849063a9059cbb60e01b906064015b60408051601f198184030181529190526020810180516001600160e01b03166001600160e01b031990931692909217909152610f1d565b609a54600090610d4b906001600160a01b0316333085610fef565b609954609a54610d68916001600160a01b0391821691168461102d565b609954604051632befabbf60e01b81526004810184905260006024820181905260448201819052916001600160a01b031690632befabbf90606401602060405180830381600087803b158015610dbd57600080fd5b505af1158015610dd1573d6000803e3d6000fd5b505050506040513d601f19601f82011682018060405250810190610cba9190611365565b6000610cba8284611453565b600080610e0c6107aa565b90506000610eb4609960009054906101000a90046001600160a01b03166001600160a01b031663313ce5676040518163ffffffff1660e01b815260040160206040518083038186803b158015610e6157600080fd5b505afa158015610e75573d6000803e3d6000fd5b505050506040513d601f19601f82011682018060405250810190610e999190611365565b610ea490600a6114ce565b610eae8685610ec8565b90610ebc565b949350505050565b6000610cba828461146b565b6000610cba8284611576565b610f198282604051602401610eea9291906113fc565b60408051601f198184030181529190526020810180516001600160e01b03166309710a9d60e41b179052611151565b5050565b6000610f72826040518060400160405280602081526020017f5361666545524332303a206c6f772d6c6576656c2063616c6c206661696c6564815250856001600160a01b03166111729092919063ffffffff16565b8051909150156107315780806020019051810190610f9091906112ed565b6107315760405162461bcd60e51b815260206004820152602a60248201527f5361666545524332303a204552433230206f7065726174696f6e20646964206e6044820152691bdd081cdd58d8d9595960b21b60648201526084016102f9565b6040516001600160a01b03808516602483015283166044820152606481018290526110279085906323b872dd60e01b90608401610cf9565b50505050565b8015806110b65750604051636eb1769f60e11b81523060048201526001600160a01b03838116602483015284169063dd62ed3e9060440160206040518083038186803b15801561107c57600080fd5b505afa158015611090573d6000803e3d6000fd5b505050506040513d601f19601f820116820180604052508101906110b49190611365565b155b6111215760405162461bcd60e51b815260206004820152603660248201527f5361666545524332303a20617070726f76652066726f6d206e6f6e2d7a65726f60448201527520746f206e6f6e2d7a65726f20616c6c6f77616e636560501b60648201526084016102f9565b6040516001600160a01b03831660248201526044810182905261073190849063095ea7b360e01b90606401610cf9565b80516a636f6e736f6c652e6c6f67602083016000808483855afa5050505050565b6060610eb4848460008585843b6111cb5760405162461bcd60e51b815260206004820152601d60248201527f416464726573733a2063616c6c20746f206e6f6e2d636f6e747261637400000060448201526064016102f9565b600080866001600160a01b031685876040516111e791906113cd565b60006040518083038185875af1925050503d8060008114611224576040519150601f19603f3d011682016040523d82523d6000602084013e611229565b606091505b5091509150611239828286611244565b979650505050505050565b60608315611253575081610cba565b8251156112635782518084602001fd5b8160405162461bcd60e51b81526004016102f991906113e9565b60006020828403121561128e578081fd5b8135610cba816115ee565b6000602082840312156112aa578081fd5b8151610cba816115ee565b600080604083850312156112c7578081fd5b82356112d2816115ee565b915060208301356112e2816115ee565b809150509250929050565b6000602082840312156112fe578081fd5b81518015158114610cba578182fd5b600080600060608486031215611321578081fd5b833561132c816115ee565b9250602084013561133c816115ee565b929592945050506040919091013590565b60006020828403121561135e578081fd5b5035919050565b600060208284031215611376578081fd5b5051919050565b6000806040838503121561138f578182fd5b8235915060208301356112e2816115ee565b600081518084526113b98160208601602086016115ac565b601f01601f19169290920160200192915050565b600082516113df8184602087016115ac565b9190910192915050565b602081526000610cba60208301846113a1565b60408152600061140f60408301856113a1565b90508260208301529392505050565b6020808252818101527f4f776e61626c653a2063616c6c6572206973206e6f7420746865206f776e6572604082015260600190565b60008219821115611466576114666115d8565b500190565b60008261148657634e487b7160e01b81526012600452602481fd5b500490565b600181815b808511156114c65781600019048211156114ac576114ac6115d8565b808516156114b957918102915b93841c9390800290611490565b509250929050565b6000610cba83836000826114e457506001610aec565b816114f157506000610aec565b816001811461150757600281146115115761152d565b6001915050610aec565b60ff841115611522576115226115d8565b50506001821b610aec565b5060208310610133831016604e8410600b8410161715611550575081810a610aec565b61155a838361148b565b806000190482111561156e5761156e6115d8565b029392505050565b6000816000190483118215151615611590576115906115d8565b500290565b6000828210156115a7576115a76115d8565b500390565b60005b838110156115c75781810151838201526020016115af565b838111156110275750506000910152565b634e487b7160e01b600052601160045260246000fd5b6001600160a01b038116811461160357600080fd5b5056fea26469706673582212208668f46dd193b1fa2f6087788d9f0c55bb27a723c8066cf3c79d8da880dcb2bc64736f6c63430008040033",
    "sourcePath": "c:/Blockchain/Projects/Gitcoin/pooltogether-idle/idle-pooltogether-2/contracts/IdleYieldSource.sol",
    "compiler": {
        "name": "solc",
        "version": "0.8.4+commit.c7e474f2"
    },
    "functionHashes": {
        "_totalShare()": "19967a37",
        "assetManager()": "94217ad1",
        "balanceOfToken(address)": "b99152d0",
        "balances(address)": "27e235e3",
        "depositToken()": "c89039c5",
        "getRedeemPrice()": "76cde564",
        "iIdleTokenHelper()": "2b24321a",
        "idleToken()": "2dd60c5e",
        "initialize(address,address)": "485cc955",
        "owner()": "8da5cb5b",
        "redeemToken(uint256)": "013054c2",
        "renounceOwnership()": "715018a6",
        "setAssetManager(address)": "43060237",
        "sponsor(uint256)": "b6cce5e2",
        "supplyTokenTo(uint256,address)": "87a6eeef",
        "totalUnderlyingAssets()": "4fb9bbba",
        "transferERC20(address,address,uint256)": "9db5dbe4",
        "transferOwnership(address)": "f2fde38b",
        "underlyingAsset()": "7158da7c"
    },
    "gasEstimates": {
        "creation": {
            "codeDepositCost": "1138400",
            "executionCost": "infinite",
            "totalCost": "infinite"
        },
        "external": {
            "_totalShare()": "infinite",
            "assetManager()": "1142",
            "balanceOfToken(address)": "infinite",
            "balances(address)": "1270",
            "depositToken()": "1119",
            "getRedeemPrice()": "infinite",
            "iIdleTokenHelper()": "1127",
            "idleToken()": "1060",
            "initialize(address,address)": "infinite",
            "owner()": "1120",
            "redeemToken(uint256)": "infinite",
            "renounceOwnership()": "24273",
            "setAssetManager(address)": "23650",
            "sponsor(uint256)": "infinite",
            "supplyTokenTo(uint256,address)": "infinite",
            "totalUnderlyingAssets()": "1073",
            "transferERC20(address,address,uint256)": "infinite",
            "transferOwnership(address)": "24504",
            "underlyingAsset()": "1060"
        },
        "internal": {
            "_depositToIdle(uint256)": "infinite",
            "_sharesToToken(uint256)": "infinite",
            "_tokenToShares(uint256)": "infinite"
        }
    }
}