{
  "address": "0xb07425a4345D2EB14105F3a1Da72540D8A6cfF11",
  "abi": [
    {
      "inputs": [
        {
          "internalType": "address",
          "name": "_instance",
          "type": "address"
        },
        {
          "internalType": "address",
          "name": "_iGenericProxyFactory",
          "type": "address"
        }
      ],
      "stateMutability": "nonpayable",
      "type": "constructor"
    },
    {
      "inputs": [
        {
          "internalType": "address",
          "name": "_idleToken",
          "type": "address"
        }
      ],
      "name": "createNewProxy",
      "outputs": [
        {
          "internalType": "address",
          "name": "instanceCreated",
          "type": "address"
        },
        {
          "internalType": "bytes",
          "name": "result",
          "type": "bytes"
        }
      ],
      "stateMutability": "nonpayable",
      "type": "function"
    },
    {
      "inputs": [],
      "name": "iGenericProxyFactory",
      "outputs": [
        {
          "internalType": "contract IGenericProxyFactory",
          "name": "",
          "type": "address"
        }
      ],
      "stateMutability": "view",
      "type": "function"
    },
    {
      "inputs": [],
      "name": "idleYieldSourceInstance",
      "outputs": [
        {
          "internalType": "contract IdleYieldSource",
          "name": "",
          "type": "address"
        }
      ],
      "stateMutability": "view",
      "type": "function"
    }
  ],
  "transactionHash": "0xb3f4325761771e802ef54a52e74a630c0f0b986e6b28a19d0a1d8c6fbc15a78d",
  "args": [
    "0x2031d045f56e679925bFdCDa3416448Cc9B1b688",
    "0x2031d045f56e679925bFdCDa3416448Cc9B1b688"
  ],
  "solcInputHash": "4b85986c24c40910be9065c411e8ff0e",
  "bytecode": "0x608060405234801561001057600080fd5b506040516103c83803806103c883398101604081905261002f9161007c565b600080546001600160a01b039384166001600160a01b031991821617909155600180549290931691161790556100ae565b80516001600160a01b038116811461007757600080fd5b919050565b6000806040838503121561008e578182fd5b61009783610060565b91506100a560208401610060565b90509250929050565b61030b806100bd6000396000f3fe608060405234801561001057600080fd5b50600436106100415760003560e01c80634f9ccab81461004657806364a9326414610070578063a25d79c51461009b575b600080fd5b610059610054366004610153565b6100ae565b604051610067929190610235565b60405180910390f35b600154610083906001600160a01b031681565b6040516001600160a01b039091168152602001610067565b600054610083906001600160a01b031681565b60015460008054604080516351fb4bdd60e11b81526001600160a01b039283166004820152602481019190915260448101839052919260609291169063a3f697ba90606401600060405180830381600087803b15801561010d57600080fd5b505af1158015610121573d6000803e3d6000fd5b505050506040513d6000823e601f3d908101601f191682016040526101499190810190610176565b9094909350915050565b600060208284031215610164578081fd5b813561016f816102bd565b9392505050565b60008060408385031215610188578081fd5b8251610193816102bd565b602084015190925067ffffffffffffffff808211156101b0578283fd5b818501915085601f8301126101c3578283fd5b8151818111156101d5576101d56102a7565b604051601f8201601f19908116603f011681019083821181831017156101fd576101fd6102a7565b81604052828152886020848701011115610215578586fd5b610226836020830160208801610277565b80955050505050509250929050565b60018060a01b03831681526040602082015260008251806040840152610262816060850160208701610277565b601f01601f1916919091016060019392505050565b60005b8381101561029257818101518382015260200161027a565b838111156102a1576000848401525b50505050565b634e487b7160e01b600052604160045260246000fd5b6001600160a01b03811681146102d257600080fd5b5056fea264697066735822122093685ff728f6263d4c1f60542f0bcb9a175c5f28b8f76b51bac236b51a09ebc164736f6c63430008040033",
  "devdoc": {
    "kind": "dev",
    "methods": {},
    "version": 1
  },
  "userdoc": {
    "kind": "user",
    "methods": {},
    "version": 1
  },
  "storageLayout": {
    "storage": [
      {
        "astId": 1782,
        "contract": "contracts/IdleYieldSourceProxyFactory.sol:IdleYieldSourceProxyFactory",
        "label": "idleYieldSourceInstance",
        "offset": 0,
        "slot": "0",
        "type": "t_contract(IdleYieldSource)1775"
      },
      {
        "astId": 1785,
        "contract": "contracts/IdleYieldSourceProxyFactory.sol:IdleYieldSourceProxyFactory",
        "label": "iGenericProxyFactory",
        "offset": 0,
        "slot": "1",
        "type": "t_contract(IGenericProxyFactory)1916"
      }
    ],
    "types": {
      "t_contract(IGenericProxyFactory)1916": {
        "encoding": "inplace",
        "label": "contract IGenericProxyFactory",
        "numberOfBytes": "20"
      },
      "t_contract(IdleYieldSource)1775": {
        "encoding": "inplace",
        "label": "contract IdleYieldSource",
        "numberOfBytes": "20"
      }
    }
  }
}