{
  "address": "0xf0dFDbD5d93C36BDF352790A241AD932f3Ed1c78",
  "abi": [
    {
      "anonymous": false,
      "inputs": [
        {
          "indexed": true,
          "internalType": "address",
          "name": "idleToken",
          "type": "address"
        }
      ],
      "name": "IdleYieldSourceInitialized",
      "type": "event"
    },
    {
      "anonymous": false,
      "inputs": [
        {
          "indexed": true,
          "internalType": "address",
          "name": "from",
          "type": "address"
        },
        {
          "indexed": false,
          "internalType": "uint256",
          "name": "shares",
          "type": "uint256"
        },
        {
          "indexed": false,
          "internalType": "uint256",
          "name": "amount",
          "type": "uint256"
        }
      ],
      "name": "RedeemedToken",
      "type": "event"
    },
    {
      "anonymous": false,
      "inputs": [
        {
          "indexed": true,
          "internalType": "address",
          "name": "from",
          "type": "address"
        },
        {
          "indexed": false,
          "internalType": "uint256",
          "name": "amount",
          "type": "uint256"
        }
      ],
      "name": "Sponsored",
      "type": "event"
    },
    {
      "anonymous": false,
      "inputs": [
        {
          "indexed": true,
          "internalType": "address",
          "name": "from",
          "type": "address"
        },
        {
          "indexed": false,
          "internalType": "uint256",
          "name": "shares",
          "type": "uint256"
        },
        {
          "indexed": false,
          "internalType": "uint256",
          "name": "amount",
          "type": "uint256"
        },
        {
          "indexed": true,
          "internalType": "address",
          "name": "to",
          "type": "address"
        }
      ],
      "name": "SuppliedTokenTo",
      "type": "event"
    },
    {
      "anonymous": false,
      "inputs": [
        {
          "indexed": true,
          "internalType": "address",
          "name": "from",
          "type": "address"
        },
        {
          "indexed": true,
          "internalType": "address",
          "name": "to",
          "type": "address"
        },
        {
          "indexed": false,
          "internalType": "uint256",
          "name": "amount",
          "type": "uint256"
        },
        {
          "indexed": true,
          "internalType": "contract IERC20Upgradeable",
          "name": "token",
          "type": "address"
        }
      ],
      "name": "TransferredERC20",
      "type": "event"
    },
    {
      "inputs": [
        {
          "internalType": "address",
          "name": "addr",
          "type": "address"
        }
      ],
      "name": "balanceOfToken",
      "outputs": [
        {
          "internalType": "uint256",
          "name": "",
          "type": "uint256"
        }
      ],
      "stateMutability": "view",
      "type": "function"
    },
    {
      "inputs": [
        {
          "internalType": "address",
          "name": "",
          "type": "address"
        }
      ],
      "name": "balances",
      "outputs": [
        {
          "internalType": "uint256",
          "name": "",
          "type": "uint256"
        }
      ],
      "stateMutability": "view",
      "type": "function"
    },
    {
      "inputs": [],
      "name": "depositToken",
      "outputs": [
        {
          "internalType": "address",
          "name": "",
          "type": "address"
        }
      ],
      "stateMutability": "view",
      "type": "function"
    },
    {
      "inputs": [],
      "name": "idleToken",
      "outputs": [
        {
          "internalType": "address",
          "name": "",
          "type": "address"
        }
      ],
      "stateMutability": "view",
      "type": "function"
    },
    {
      "inputs": [
        {
          "internalType": "address",
          "name": "_idleToken",
          "type": "address"
        }
      ],
      "name": "initialize",
      "outputs": [],
      "stateMutability": "nonpayable",
      "type": "function"
    },
    {
      "inputs": [],
      "name": "maxValue",
      "outputs": [
        {
          "internalType": "uint256",
          "name": "",
          "type": "uint256"
        }
      ],
      "stateMutability": "view",
      "type": "function"
    },
    {
      "inputs": [
        {
          "internalType": "uint256",
          "name": "redeemAmount",
          "type": "uint256"
        }
      ],
      "name": "redeemToken",
      "outputs": [
        {
          "internalType": "uint256",
          "name": "",
          "type": "uint256"
        }
      ],
      "stateMutability": "nonpayable",
      "type": "function"
    },
    {
      "inputs": [
        {
          "internalType": "uint256",
          "name": "amount",
          "type": "uint256"
        }
      ],
      "name": "sponsor",
      "outputs": [],
      "stateMutability": "nonpayable",
      "type": "function"
    },
    {
      "inputs": [
        {
          "internalType": "uint256",
          "name": "mintAmount",
          "type": "uint256"
        },
        {
          "internalType": "address",
          "name": "to",
          "type": "address"
        }
      ],
      "name": "supplyTokenTo",
      "outputs": [],
      "stateMutability": "nonpayable",
      "type": "function"
    },
    {
      "inputs": [],
      "name": "totalUnderlyingAssets",
      "outputs": [
        {
          "internalType": "uint256",
          "name": "",
          "type": "uint256"
        }
      ],
      "stateMutability": "view",
      "type": "function"
    },
    {
      "inputs": [],
      "name": "underlyingAsset",
      "outputs": [
        {
          "internalType": "address",
          "name": "",
          "type": "address"
        }
      ],
      "stateMutability": "view",
      "type": "function"
    }
  ],
  "transactionHash": "0xf8c6ff553a083d1e8349fe76a1b951603ba7021f003d82122ef1756956350431",
  "args": [],
  "solcInputHash": "4b85986c24c40910be9065c411e8ff0e",
  "bytecode": "0x608060405260001960375534801561001657600080fd5b50610e94806100266000396000f3fe608060405234801561001057600080fd5b50600436106100a95760003560e01c806387a6eeef1161007157806387a6eeef1461013b57806394a5c2e414610150578063b6cce5e214610159578063b99152d01461016c578063c4d66de81461017f578063c89039c51461019257600080fd5b8063013054c2146100ae57806327e235e3146100d45780632dd60c5e146100f45780634fb9bbba1461011f5780637158da7c14610128575b600080fd5b6100c16100bc366004610ce8565b6101a3565b6040519081526020015b60405180910390f35b6100c16100e2366004610c90565b60336020526000908152604090205481565b603454610107906001600160a01b031681565b6040516001600160a01b0390911681526020016100cb565b6100c160365481565b603554610107906001600160a01b031681565b61014e610149366004610d18565b610394565b005b6100c160375481565b61014e610167366004610ce8565b610497565b6100c161017a366004610c90565b6104d9565b61014e61018d366004610c90565b610526565b6035546001600160a01b0316610107565b6000600260015414156101fd5760405162461bcd60e51b815260206004820152601f60248201527f5265656e7472616e637947756172643a207265656e7472616e742063616c6c0060448201526064015b60405180910390fd5b6002600155600061020d836106cf565b336000908152603360205260409020549091508111156102795760405162461bcd60e51b815260206004820152602160248201527f52656465656d546f6b656e3a204e6f7420456e6f756768204465706f736974656044820152601960fa1b60648201526084016101f4565b6034546040516345985a8b60e11b8152600481018390526000916001600160a01b031690638b30b51690602401602060405180830381600087803b1580156102c057600080fd5b505af11580156102d4573d6000803e3d6000fd5b505050506040513d601f19601f820116820180604052508101906102f89190610d00565b33600090815260336020526040902054909150610316908390610ded565b33600090815260336020526040902055603654610334908590610ded565b60365560355461034e906001600160a01b0316338361070b565b604080518381526020810186905233917f5c9b0a8fe13a826ca676f5ad4f98c747b5086beb79ab58589b8211b62fa32fb9910160405180910390a2600180559392505050565b600260015414156103e75760405162461bcd60e51b815260206004820152601f60248201527f5265656e7472616e637947756172643a207265656e7472616e742063616c6c0060448201526064016101f4565b600260015560006103f783610773565b6001600160a01b03831660009081526033602052604090205490915061041e908290610d96565b6001600160a01b038316600090815260336020526040902055603654610445908490610d96565b60365560408051828152602081018590526001600160a01b0384169133917fdef5cc95ad9b1c65c586d0fce815ec764b575719636edf58ff2553ae6f110452910160405180910390a350506001805550565b6104a081610773565b5060405181815233907fbb2c10eb8b0d65523a501a1c079906e38af3c4231e31b799d408daacd7ce72269060200160405180910390a250565b6001600160a01b0381166000908152603360205260408120546104fe57506000919050565b6001600160a01b03821660009081526033602052604090205461052090610838565b92915050565b600054610100900460ff168061053f575060005460ff16155b6105a25760405162461bcd60e51b815260206004820152602e60248201527f496e697469616c697a61626c653a20636f6e747261637420697320616c72656160448201526d191e481a5b9a5d1a585b1a5e995960921b60648201526084016101f4565b600054610100900460ff161580156105c4576000805461ffff19166101011790555b603480546001600160a01b0319166001600160a01b03841690811790915560408051637e062a3560e11b8152905163fc0c546a916004808201926020929091908290030181600087803b15801561061a57600080fd5b505af115801561062e573d6000803e3d6000fd5b505050506040513d601f19601f820116820180604052508101906106529190610cac565b603580546001600160a01b0319166001600160a01b039283169081179091556034546106819216600019610863565b6034546040516001600160a01b03909116907f795e3042efad8c5d441d3c1a8cb34f31d2c27dba7a6d188d0242de49b828dcd790600090a280156106cb576000805461ff00191690555b5050565b6000806106da610987565b6106e5575081610520565b6036546106f0610987565b6106fa9085610dce565b6107049190610dae565b9392505050565b6040516001600160a01b03831660248201526044810182905261076e90849063a9059cbb60e01b906064015b60408051601f198184030181529190526020810180516001600160e01b03166001600160e01b031990931692909217909152610a08565b505050565b60355460009061078e906001600160a01b0316333085610ada565b6034546035546107ab916001600160a01b03918216911684610863565b603454604051632befabbf60e01b81526004810184905260006024820181905260448201819052916001600160a01b031690632befabbf90606401602060405180830381600087803b15801561080057600080fd5b505af1158015610814573d6000803e3d6000fd5b505050506040513d601f19601f820116820180604052508101906107049190610d00565b600080610843610987565b61084e575081610520565b610856610987565b6036546106fa9085610dce565b8015806108ec5750604051636eb1769f60e11b81523060048201526001600160a01b03838116602483015284169063dd62ed3e9060440160206040518083038186803b1580156108b257600080fd5b505afa1580156108c6573d6000803e3d6000fd5b505050506040513d601f19601f820116820180604052508101906108ea9190610d00565b155b6109575760405162461bcd60e51b815260206004820152603660248201527f5361666545524332303a20617070726f76652066726f6d206e6f6e2d7a65726f60448201527520746f206e6f6e2d7a65726f20616c6c6f77616e636560501b60648201526084016101f4565b6040516001600160a01b03831660248201526044810182905261076e90849063095ea7b360e01b90606401610737565b6034546040516370a0823160e01b81523060048201526000916001600160a01b0316906370a082319060240160206040518083038186803b1580156109cb57600080fd5b505afa1580156109df573d6000803e3d6000fd5b505050506040513d601f19601f82011682018060405250810190610a039190610d00565b905090565b6000610a5d826040518060400160405280602081526020017f5361666545524332303a206c6f772d6c6576656c2063616c6c206661696c6564815250856001600160a01b0316610b189092919063ffffffff16565b80519091501561076e5780806020019051810190610a7b9190610cc8565b61076e5760405162461bcd60e51b815260206004820152602a60248201527f5361666545524332303a204552433230206f7065726174696f6e20646964206e6044820152691bdd081cdd58d8d9595960b21b60648201526084016101f4565b6040516001600160a01b0380851660248301528316604482015260648101829052610b129085906323b872dd60e01b90608401610737565b50505050565b6060610b278484600085610b2f565b949350505050565b606082471015610b905760405162461bcd60e51b815260206004820152602660248201527f416464726573733a20696e73756666696369656e742062616c616e636520666f6044820152651c8818d85b1b60d21b60648201526084016101f4565b843b610bde5760405162461bcd60e51b815260206004820152601d60248201527f416464726573733a2063616c6c20746f206e6f6e2d636f6e747261637400000060448201526064016101f4565b600080866001600160a01b03168587604051610bfa9190610d47565b60006040518083038185875af1925050503d8060008114610c37576040519150601f19603f3d011682016040523d82523d6000602084013e610c3c565b606091505b5091509150610c4c828286610c57565b979650505050505050565b60608315610c66575081610704565b825115610c765782518084602001fd5b8160405162461bcd60e51b81526004016101f49190610d63565b600060208284031215610ca1578081fd5b813561070481610e46565b600060208284031215610cbd578081fd5b815161070481610e46565b600060208284031215610cd9578081fd5b81518015158114610704578182fd5b600060208284031215610cf9578081fd5b5035919050565b600060208284031215610d11578081fd5b5051919050565b60008060408385031215610d2a578081fd5b823591506020830135610d3c81610e46565b809150509250929050565b60008251610d59818460208701610e04565b9190910192915050565b6020815260008251806020840152610d82816040850160208701610e04565b601f01601f19169190910160400192915050565b60008219821115610da957610da9610e30565b500190565b600082610dc957634e487b7160e01b81526012600452602481fd5b500490565b6000816000190483118215151615610de857610de8610e30565b500290565b600082821015610dff57610dff610e30565b500390565b60005b83811015610e1f578181015183820152602001610e07565b83811115610b125750506000910152565b634e487b7160e01b600052601160045260246000fd5b6001600160a01b0381168114610e5b57600080fd5b5056fea2646970667358221220bae454b84fb7c7c9e852181db3cc36877e5eb103614fe91b4d312e090b95901b64736f6c63430008040033",
  "devdoc": {
    "author": "Sunny Radadiya",
    "kind": "dev",
    "methods": {
      "balanceOfToken(address)": {
        "returns": {
          "_0": "The underlying balance of asset tokens"
        }
      },
      "depositToken()": {
        "returns": {
          "_0": "The ERC20 asset token"
        }
      },
      "initialize(address)": {
        "params": {
          "_idleToken": "Idle Token address"
        }
      },
      "redeemToken(uint256)": {
        "params": {
          "redeemAmount": "The amount of `token()` to withdraw.  Denominated in `token()` as above."
        },
        "returns": {
          "_0": "The actual amount of tokens that were redeemed."
        }
      },
      "sponsor(uint256)": {
        "details": "This allows anyone to distribute tokens among the share holders",
        "params": {
          "amount": "The amount of tokens to deposit"
        }
      },
      "supplyTokenTo(uint256,address)": {
        "params": {
          "mintAmount": "The amount of `token()` to be supplied",
          "to": "The user whose balance will receive the tokens"
        }
      }
    },
    "title": "An pooltogether yield source for Idle token",
    "version": 1
  },
  "userdoc": {
    "events": {
      "IdleYieldSourceInitialized(address)": {
        "notice": "Emitted when the yield source is initialized"
      },
      "RedeemedToken(address,uint256,uint256)": {
        "notice": "Emitted when asset tokens are redeemed from the yield source"
      },
      "Sponsored(address,uint256)": {
        "notice": "Emitted when asset tokens are supplied to sponsor the yield source"
      },
      "SuppliedTokenTo(address,uint256,uint256,address)": {
        "notice": "Emitted when asset tokens are supplied to the yield source"
      },
      "TransferredERC20(address,address,uint256,address)": {
        "notice": "Emitted when ERC20 tokens other than yield source's aToken are withdrawn from the yield source"
      }
    },
    "kind": "user",
    "methods": {
      "balanceOfToken(address)": {
        "notice": "Returns the total balance (in asset tokens).  This includes the deposits and interest."
      },
      "depositToken()": {
        "notice": "Returns the ERC20 asset token used for deposits."
      },
      "initialize(address)": {
        "notice": "Initializes the yield source with Idle Token"
      },
      "redeemToken(uint256)": {
        "notice": "Redeems tokens from the yield source from the msg.sender, it burn yield bearing tokens and return token to the sender."
      },
      "sponsor(uint256)": {
        "notice": "Allows someone to deposit into the yield source without receiving any shares"
      },
      "supplyTokenTo(uint256,address)": {
        "notice": "Allows assets to be supplied on other user's behalf using the `to` param."
      }
    },
    "version": 1
  },
  "storageLayout": {
    "storage": [
      {
        "astId": 137,
        "contract": "contracts/IdleYieldSource.sol:IdleYieldSource",
        "label": "_initialized",
        "offset": 0,
        "slot": "0",
        "type": "t_bool"
      },
      {
        "astId": 140,
        "contract": "contracts/IdleYieldSource.sol:IdleYieldSource",
        "label": "_initializing",
        "offset": 1,
        "slot": "0",
        "type": "t_bool"
      },
      {
        "astId": 191,
        "contract": "contracts/IdleYieldSource.sol:IdleYieldSource",
        "label": "_status",
        "offset": 0,
        "slot": "1",
        "type": "t_uint256"
      },
      {
        "astId": 234,
        "contract": "contracts/IdleYieldSource.sol:IdleYieldSource",
        "label": "__gap",
        "offset": 0,
        "slot": "2",
        "type": "t_array(t_uint256)49_storage"
      },
      {
        "astId": 1377,
        "contract": "contracts/IdleYieldSource.sol:IdleYieldSource",
        "label": "balances",
        "offset": 0,
        "slot": "51",
        "type": "t_mapping(t_address,t_uint256)"
      },
      {
        "astId": 1379,
        "contract": "contracts/IdleYieldSource.sol:IdleYieldSource",
        "label": "idleToken",
        "offset": 0,
        "slot": "52",
        "type": "t_address"
      },
      {
        "astId": 1381,
        "contract": "contracts/IdleYieldSource.sol:IdleYieldSource",
        "label": "underlyingAsset",
        "offset": 0,
        "slot": "53",
        "type": "t_address"
      },
      {
        "astId": 1383,
        "contract": "contracts/IdleYieldSource.sol:IdleYieldSource",
        "label": "totalUnderlyingAssets",
        "offset": 0,
        "slot": "54",
        "type": "t_uint256"
      },
      {
        "astId": 1390,
        "contract": "contracts/IdleYieldSource.sol:IdleYieldSource",
        "label": "maxValue",
        "offset": 0,
        "slot": "55",
        "type": "t_uint256"
      }
    ],
    "types": {
      "t_address": {
        "encoding": "inplace",
        "label": "address",
        "numberOfBytes": "20"
      },
      "t_array(t_uint256)49_storage": {
        "base": "t_uint256",
        "encoding": "inplace",
        "label": "uint256[49]",
        "numberOfBytes": "1568"
      },
      "t_bool": {
        "encoding": "inplace",
        "label": "bool",
        "numberOfBytes": "1"
      },
      "t_mapping(t_address,t_uint256)": {
        "encoding": "mapping",
        "key": "t_address",
        "label": "mapping(address => uint256)",
        "numberOfBytes": "32",
        "value": "t_uint256"
      },
      "t_uint256": {
        "encoding": "inplace",
        "label": "uint256",
        "numberOfBytes": "32"
      }
    }
  }
}